{
  "contractName": "PaymentContract",
  "abi": [
    {
      "inputs": [
        {
          "internalType": "address",
          "name": "_maticTokenAddress",
          "type": "address"
        }
      ],
      "stateMutability": "nonpayable",
      "type": "constructor"
    },
    {
      "inputs": [],
      "name": "maticTokenAddress",
      "outputs": [
        {
          "internalType": "address",
          "name": "",
          "type": "address"
        }
      ],
      "stateMutability": "view",
      "type": "function",
      "constant": true
    },
    {
      "inputs": [],
      "name": "totalFunds",
      "outputs": [
        {
          "internalType": "uint256",
          "name": "",
          "type": "uint256"
        }
      ],
      "stateMutability": "view",
      "type": "function",
      "constant": true
    },
    {
      "inputs": [
        {
          "internalType": "address",
          "name": "to",
          "type": "address"
        },
        {
          "internalType": "uint256",
          "name": "amount",
          "type": "uint256"
        }
      ],
      "name": "sendTokenToAddress",
      "outputs": [],
      "stateMutability": "nonpayable",
      "type": "function"
    },
    {
      "inputs": [
        {
          "internalType": "address",
          "name": "user",
          "type": "address"
        }
      ],
      "name": "getBalance",
      "outputs": [
        {
          "internalType": "uint256",
          "name": "",
          "type": "uint256"
        }
      ],
      "stateMutability": "view",
      "type": "function",
      "constant": true
    }
  ],
  "bytecode": "0x60806040526000805534801561001457600080fd5b506040516106e03803806106e0833981810160405281019061003691906100e0565b80600160006101000a81548173ffffffffffffffffffffffffffffffffffffffff021916908373ffffffffffffffffffffffffffffffffffffffff1602179055505061010d565b600080fd5b600073ffffffffffffffffffffffffffffffffffffffff82169050919050565b60006100ad82610082565b9050919050565b6100bd816100a2565b81146100c857600080fd5b50565b6000815190506100da816100b4565b92915050565b6000602082840312156100f6576100f561007d565b5b6000610104848285016100cb565b91505092915050565b6105c48061011c6000396000f3fe608060405234801561001057600080fd5b506004361061004c5760003560e01c80632d7e4c1714610051578063968ed6001461006d578063e236ecdf1461008b578063f8b2cb4f146100a9575b600080fd5b61006b600480360381019061006691906103c6565b6100d9565b005b610075610248565b6040516100829190610415565b60405180910390f35b61009361024e565b6040516100a0919061043f565b60405180910390f35b6100c360048036038101906100be919061045a565b610274565b6040516100d09190610415565b60405180910390f35b80600160009054906101000a900473ffffffffffffffffffffffffffffffffffffffff1673ffffffffffffffffffffffffffffffffffffffff1663dd62ed3e33856040518363ffffffff1660e01b8152600401610137929190610487565b60206040518083038186803b15801561014f57600080fd5b505afa158015610163573d6000803e3d6000fd5b505050506040513d601f19601f8201168201806040525081019061018791906104c5565b101561019257600080fd5b600160009054906101000a900473ffffffffffffffffffffffffffffffffffffffff1673ffffffffffffffffffffffffffffffffffffffff166323b872dd3384846040518463ffffffff1660e01b81526004016101f1939291906104f2565b602060405180830381600087803b15801561020b57600080fd5b505af115801561021f573d6000803e3d6000fd5b505050506040513d601f19601f820116820180604052508101906102439190610561565b505050565b60005481565b600160009054906101000a900473ffffffffffffffffffffffffffffffffffffffff1681565b600080600160009054906101000a900473ffffffffffffffffffffffffffffffffffffffff1673ffffffffffffffffffffffffffffffffffffffff166370a08231846040518263ffffffff1660e01b81526004016102d2919061043f565b60206040518083038186803b1580156102ea57600080fd5b505afa1580156102fe573d6000803e3d6000fd5b505050506040513d601f19601f8201168201806040525081019061032291906104c5565b905080915050919050565b600080fd5b600073ffffffffffffffffffffffffffffffffffffffff82169050919050565b600061035d82610332565b9050919050565b61036d81610352565b811461037857600080fd5b50565b60008135905061038a81610364565b92915050565b6000819050919050565b6103a381610390565b81146103ae57600080fd5b50565b6000813590506103c08161039a565b92915050565b600080604083850312156103dd576103dc61032d565b5b60006103eb8582860161037b565b92505060206103fc858286016103b1565b9150509250929050565b61040f81610390565b82525050565b600060208201905061042a6000830184610406565b92915050565b61043981610352565b82525050565b60006020820190506104546000830184610430565b92915050565b6000602082840312156104705761046f61032d565b5b600061047e8482850161037b565b91505092915050565b600060408201905061049c6000830185610430565b6104a96020830184610430565b9392505050565b6000815190506104bf8161039a565b92915050565b6000602082840312156104db576104da61032d565b5b60006104e9848285016104b0565b91505092915050565b60006060820190506105076000830186610430565b6105146020830185610430565b6105216040830184610406565b949350505050565b60008115159050919050565b61053e81610529565b811461054957600080fd5b50565b60008151905061055b81610535565b92915050565b6000602082840312156105775761057661032d565b5b60006105858482850161054c565b9150509291505056fea2646970667358221220cbedbfae4e1cd41fa6033b1b58c29e1b80800f03cffe5e7cdc45819577d470e664736f6c63430008090033",
  "immutableReferences": {},
  "source": "// SPDX-License-Identifier: MIT\npragma solidity ^0.8.6;\nimport \"@openzeppelin/contracts/token/ERC20/IERC20.sol\";\n\ncontract PaymentContract {\n    uint256 public totalFunds = 0;\n    address public maticTokenAddress;\n\n    constructor(address _maticTokenAddress) {\n        maticTokenAddress = _maticTokenAddress;\n    }\n\n    function sendTokenToAddress(address to, uint256 amount) public {\n        require(IERC20(maticTokenAddress).allowance(msg.sender, to) >= amount);\n        IERC20(maticTokenAddress).transferFrom(msg.sender, to, amount);\n    }\n\n    function getBalance(address user) public view returns (uint256) {\n        uint256 balance = IERC20(maticTokenAddress).balanceOf(user);\n        return balance;\n    }\n}\n",
  "sourcePath": "/Users/viralsangani/Desktop/Projects/Blockchain/Figment/polygon-peer-to-peer-payment/contracts/PaymentContract.sol",
  "compiler": {
    "name": "solc",
    "version": "0.8.9+commit.e5eed63a.Emscripten.clang"
  },
  "schemaVersion": "3.4.1",
  "updatedAt": "2021-10-09T06:41:28.305Z",
  "networkType": "ethereum",
  "devdoc": {
    "kind": "dev",
    "methods": {},
    "version": 1
  },
  "userdoc": {
    "kind": "user",
    "methods": {},
    "version": 1
  }
}